S00F000044696769616D702E737265635A
S11300000C9434000C9433020C9457020C94510059
S11300100C9451000C9451000C9451000C94510018
S11300200C9451000C9451000C9451000C94510008
S11300300C9451000C9451000C9451000C945100F8
S11300400C9451000C9451000C9451000C945100E8
S11300500C9451000C9451000C9451000C945100D8
S11300600C9451000C94510011241FBECFEFD8E022
S1130070DEBFCDBF11E0A0E0B1E0EAE2F9E002C0EA
S113008005900D92AE38B107D9F721E0AEE8B1E0A2
S113009001C01D92A939B207E1F70E9423040C9410
S11300A093040C9400003D9A3C9A3B9A3A9A399AEC
S11300B0389A0895459888230CF4459A449886FD07
S11300C0449A439885FD439A429884FD429A419A02
S11300D08AEB8A95F1F700C041988AEB8A95F1F78B
S11300E000C00895CF93C82F409A41980E945A00A7
S11300F08C2F8295807F0E945A00CF9108950F9390
S11301001F93CF93DF9300D0CDB7DEB78C011A8253
S11301101982E981FA81E80FF91F80818823B1F0FF
S1130120E981FA81E00FF11F80810E9472008981C8
S11301309A8101969A83898380EF8A95F1F7E98100
S1130140FA81E00FF11F80818111EACF0F900F90A7
S1130150DF91CF911F910F910895CF93C82F4098AD
S113016041980E945A008C2F8295807F0E945A00E9
S1130170CF9108952FEF80E792E021508040904086
S1130180E1F700C000004098419880E30E945A00C3
S11301908FE39CE90197F1F700C0000080E30E941F
S11301A05A0087E592E00197F1F700C0000080E370
S11301B00E945A0087E592E00197F1F700C0000021
S11301C088E20E945A0090EF9A95F1F788E20E9423
S11301D0AD0020EF2A95F1F788E00E94AD0080EF92
S11301E08A95F1F781E00E94AD008FE79EE30197C5
S11301F0F1F700C0000086E00E94AD0090EF9A95F0
S1130200F1F78CE00E94AD0020EF2A95F1F70895F4
S113021041E0682F80E10E943A04089541E0682F8C
S113022080E00E943A04089542E0682F81E10E9430
S11302303A04089542E0682F82E10E943A04089546
S113024080E80E94AD0081E091E00E947F0080EC94
S11302500E94AD0082E191E00E947F000895E9E6EA
S1130260F0E08081856080838DB383608DBB78945A
S113027008958AB1827F8AB908950E942F010E944D
S113028039010E9453000E94BA000E9456040E9441
S1130290200180E00E94140180E00E940E0180E0B1
S11302A00E941A0180E00E9408010895CF93DF9311
S11302B000D0CDB7DEB71A82198289B182FB8827B4
S11302C080F98093950189B183FB882780F9809315
S11302D094018BE291E00197F1F700C00000809156
S11302E09501811112C080919301882371F080914E
S11302F09401882329F081E090E09A83898307C0E0
S11303008FEF9FEF9A83898302C01A8219828091AA
S113031095018093930189819A810F900F90DF91C9
S1130320CF91089510928E0180910001833079F16C
S113033018F4823041F00895843009F44CC08530BB
S113034009F46DC008950E9456018F3F2FEF920764
S113035019F0019761F016C080919201823018F46F
S1130360109292010FC08350809392010BC0809130
S113037092018A3F20F08FEF8093920103C08D5F3A
S113038080939201809192010E94080108950E9435
S113039056018F3F2FEF920719F0019761F016C0B5
S11303A080919101823018F4109291010FC0815014
S11303B0809391010BC0809191018E3F20F08FEFCB
S11303C08093910103C08F5F80939101809191018B
S11303D00E940E0108950E9456018F3F2FEF92074D
S11303E019F0019761F016C080918F01823018F4E2
S11303F010928F010FC0835080938F010BC08091A6
S11304008F018E3F20F08FEF80938F0103C08D5FAB
S113041080938F0180918F010E94140108950E949E
S113042056018F3F2FEF920719F0019761F016C024
S113043080919001823018F4109290010FC0835083
S1130440809390010BC0809190018E3F20F08FEF3C
S11304508093900103C08D5F8093900180919001FF
S11304600E941A0108951F920F920FB60F92112441
S11304702F933F934F935F936F937F938F939F93A8
S1130480AF93BF93EF93FF930E949201FF91EF917B
S1130490BF91AF919F918F917F916F915F914F9198
S11304A03F912F910F900FBE0F901F9018951F92A0
S11304B00F920FB60F9211242F933F934F935F9394
S11304C06F937F938F939F93AF93BF93EF93FF9318
S11304D00E949201FF91EF91BF91AF919F918F91F3
S11304E07F916F915F914F913F912F910F900FBE2C
S11304F00F901F9018952DEC829F912D11249695A5
S113050096959695492F440F342F330F330F340F9C
S1130510482F431B342F305DE6E9F1E03283929F8C
S1130520212D1124269526952695220F322F330F3F
S1130530330F230F921B905D918399E2899F812D44
S1130540112482958F70805D80830895CF93DF930B
S113055080919001C4E6C89FC00111246FEF70E040
S11305600E946B04862F0E947B0280E80E94AD00EB
S113057083E291E00E947F0080EC0E94AD0084E35E
S113058091E00E947F0080919001C89FC0011124D6
S11305909C0122503F4F243F3A4040F489EC0E9492
S11305A0AD00809198010E9472001BC0865F994043
S11305B0863A994578F488EC0E94AD00C6E9D1E00A
S11305C089810E94720089EC0E94AD008A810E9498
S11305D0720007C087EC0E94AD0085E491E00E94A0
S11305E07F00DF91CF910895CF93DF9380919101A4
S11305F0C4E6C89FC00111246FEF70E00E946B0431
S1130600862F0E947B0280E80E94AD0089E491E07D
S11306100E947F0080EC0E94AD0084E391E00E9480
S11306207F0080919101C89FC00111249C01225038
S11306303F4F243F3A4040F489EC0E94AD00809142
S113064098010E9472001BC0865F9940863A9945C2
S113065078F488EC0E94AD00C6E9D1E089810E945B
S1130660720089EC0E94AD008A810E94720007C06A
S113067087EC0E94AD0085E491E00E947F00DF9149
S1130680CF910895CF93DF9380919201C4E6C89FE0
S1130690C00111246FEF70E00E946B04862F0E944A
S11306A07B0280E80E94AD008AE591E00E947F0011
S11306B080EC0E94AD008BE691E00E947F00809167
S11306C09201C89FC00111249C0122503F4F243F36
S11306D03A4040F48AEC0E94AD00809198010E9457
S11306E072001BC0865F9940863A994578F489EC7C
S11306F00E94AD00C6E9D1E089810E9472008AECB3
S11307000E94AD008A810E94720007C088EC0E949A
S1130710AD0085E491E00E947F00DF91CF910895C0
S1130720CF93DF9380918F01C4E6C89FC001112449
S11307306FEF70E00E946B04862F0E947B0280E8BA
S11307400E94AD008CE791E00E947F0080EC0E9443
S1130750AD0084E391E00E947F0080918F01C89FE7
S1130760C00111249C0122503F4F243F3A4040F4E1
S113077089EC0E94AD00809198010E9472001BC018
S1130780865F9940863A994578F488EC0E94AD00DA
S1130790C6E9D1E089810E94720089EC0E94AD0013
S11307A08A810E94720007C087EC0E94AD0085E434
S11307B091E00E947F00DF91CF9108951F93CF9322
S11307C0DF9315E0C1E0D4E0809100018430A9F00A
S11307D0853021F18330D1F780918E01811104C0DD
S11307E00E94F402C0938E014899EECF10928E01BC
S11307F0489BFECFD0930001E7CF80918E018111F9
S113080004C00E949003C0938E014899DDCF1092DA
S11308108E01489BFECF10930001D6CF80918E01AC
S1130820811104C00E94A602C0938E014899CCCFC6
S1130830489BFECF82E08093000110928E01DF91ED
S1130840CF911F9108950E943D01C1E0D3E08091B2
S11308508E01811104C00E944203C0938E01489905
S1130860F6CF10928E01489BFECFD09300010E94D8
S1130870DE03EDCF95B121E030E002C0220F331F3B
S11308804A95E2F7422F4095942395B995E09A95BD
S1130890F1F700008EBD0DB407FEFDCF6EBD0DB4A3
S11308A007FEFDCF85B1282B25B908958EE284B9C2
S11308B085B1866085B980E58CBD81E08DBD8FEC06
S11308C097E00197F1F700C0000041E06FEF80E48A
S11308D00E943A04089597FB072E16F4009407D05B
S11308E077FD09D00E947F0407FC05D03EF4909563
S11308F081959F4F0895709561957F4F0895AA1B28
S1130900BB1B51E107C0AA1FBB1FA617B70710F0F6
S1130910A61BB70B881F991F5A95A9F78095909528
S10D0920BC01CD010895F894FFCF47
S113092A024772656574696E6773203A292020202C
S113093A2000416D706C6966696365206973204F94
S113094A4E20003C2044656C61792054696D652011
S113095A20203E003C56616C75653A2020205B25B8
S113096A5D20203E00313030003C204761696E2012
S113097A53656C65637420203E003C416D706C695C
S113098A666963652056312E303E003C566F6C759D
S113099A6D653A2020205B255D203E003C2044659D
S11109AA6C617920446570746820203E000062
S9030000FC
